{
  "transactions": [
    {
      "hash": "0x9d4abf167589839899c8f9625d18f426c1a165282e73e9d15d49e5bd10531db5",
      "transactionType": "CALL",
      "contractName": null,
      "contractAddress": "0x779877a7b0d9e8603169ddbd7836e478b4624789",
      "function": "transferAndCall(address,uint256,bytes)",
      "arguments": [
        "0x9DdfaCa8183c41ad55329BdeeD9F6A8d53168B1B",
        "5000000000000000000",
        "0x18dbb27a211c0f502c3ad6178a89c7007d8f3f9bb3843ff463911cb517bb29c7"
      ],
      "transaction": {
        "from": "0x620b143432e71e1281b0f96d6d6497eef9221ee3",
        "to": "0x779877a7b0d9e8603169ddbd7836e478b4624789",
        "gas": "0x1603d",
        "value": "0x0",
        "input": "0x4000aea00000000000000000000000009ddfaca8183c41ad55329bdeed9f6a8d53168b1b0000000000000000000000000000000000000000000000004563918244f400000000000000000000000000000000000000000000000000000000000000000060000000000000000000000000000000000000000000000000000000000000002018dbb27a211c0f502c3ad6178a89c7007d8f3f9bb3843ff463911cb517bb29c7",
        "nonce": "0x7a",
        "chainId": "0xaa36a7"
      },
      "additionalContracts": [],
      "isFixedGasLimit": false
    }
  ],
  "receipts": [
    {
      "status": "0x1",
      "cumulativeGasUsed": "0x96db6e",
      "logs": [
        {
          "address": "0x779877a7b0d9e8603169ddbd7836e478b4624789",
          "topics": [
            "0xddf252ad1be2c89b69c2b068fc378daa952ba7f163c4a11628f55a4df523b3ef",
            "0x000000000000000000000000620b143432e71e1281b0f96d6d6497eef9221ee3",
            "0x0000000000000000000000009ddfaca8183c41ad55329bdeed9f6a8d53168b1b"
          ],
          "data": "0x0000000000000000000000000000000000000000000000004563918244f40000",
          "blockHash": "0xeb73034613d2c5b18fcaf71196f482753e8c5e788cc407fca48f4d0429e77baf",
          "blockNumber": "0x732a92",
          "transactionHash": "0x9d4abf167589839899c8f9625d18f426c1a165282e73e9d15d49e5bd10531db5",
          "transactionIndex": "0x68",
          "logIndex": "0xad",
          "removed": false
        },
        {
          "address": "0x779877a7b0d9e8603169ddbd7836e478b4624789",
          "topics": [
            "0xe19260aff97b920c7df27010903aeb9c8d2be5d310a2c67824cf3f15396e4c16",
            "0x000000000000000000000000620b143432e71e1281b0f96d6d6497eef9221ee3",
            "0x0000000000000000000000009ddfaca8183c41ad55329bdeed9f6a8d53168b1b"
          ],
          "data": "0x0000000000000000000000000000000000000000000000004563918244f400000000000000000000000000000000000000000000000000000000000000000040000000000000000000000000000000000000000000000000000000000000002018dbb27a211c0f502c3ad6178a89c7007d8f3f9bb3843ff463911cb517bb29c7",
          "blockHash": "0xeb73034613d2c5b18fcaf71196f482753e8c5e788cc407fca48f4d0429e77baf",
          "blockNumber": "0x732a92",
          "transactionHash": "0x9d4abf167589839899c8f9625d18f426c1a165282e73e9d15d49e5bd10531db5",
          "transactionIndex": "0x68",
          "logIndex": "0xae",
          "removed": false
        },
        {
          "address": "0x9ddfaca8183c41ad55329bdeed9f6a8d53168b1b",
          "topics": [
            "0x1ced9348ff549fceab2ac57cd3a9de38edaaab274b725ee82c23e8fc8c4eec7a",
            "0x18dbb27a211c0f502c3ad6178a89c7007d8f3f9bb3843ff463911cb517bb29c7"
          ],
          "data": "0x0000000000000000000000000000000000000000000000004563918244f400000000000000000000000000000000000000000000000000008ac7230489e80000",
          "blockHash": "0xeb73034613d2c5b18fcaf71196f482753e8c5e788cc407fca48f4d0429e77baf",
          "blockNumber": "0x732a92",
          "transactionHash": "0x9d4abf167589839899c8f9625d18f426c1a165282e73e9d15d49e5bd10531db5",
          "transactionIndex": "0x68",
          "logIndex": "0xaf",
          "removed": false
        }
      ],
      "logsBloom": "0x00000004000000000000000000000000000000000020000000000000020000000000000000000000000000000000000000000000000000000000000000000000000000000000000000000008000000000000000000000000000020000020000008000000000400000000000000000800000000000000000000000010000040000000000000000000000000010000800000001020000000000000000000000000000000000000000000000000010000000000000000000000000004000000000000000002000000000010000000000000000000000000000100000200000000000010000000000000800000000000000000800000000000000000000000000000",
      "type": "0x2",
      "transactionHash": "0x9d4abf167589839899c8f9625d18f426c1a165282e73e9d15d49e5bd10531db5",
      "transactionIndex": "0x68",
      "blockHash": "0xeb73034613d2c5b18fcaf71196f482753e8c5e788cc407fca48f4d0429e77baf",
      "blockNumber": "0x732a92",
      "gasUsed": "0xf0d9",
      "effectiveGasPrice": "0x4581db258",
      "from": "0x620b143432e71e1281b0f96d6d6497eef9221ee3",
      "to": "0x779877a7b0d9e8603169ddbd7836e478b4624789",
      "contractAddress": null
    }
  ],
  "libraries": [],
  "pending": [],
  "returns": {},
  "timestamp": 1737555782,
  "chain": 11155111,
  "commit": "b0a3827"
}